:100000000C942A000C9447000C9447000C94470071
:100010000C9447000C9447000C9447000C94470044
:100020000C9447000C9447000C9447000C94470034
:100030000C9447000C9447000C9447000C94470024
:100040000C9447000C9447000C9447000C94470014
:100050000C94470011241FBECFE5D8E0DEBFCDBF12
:1000600011E0A0E6B0E0E6EBFDE002C005900D92E5
:10007000AE36B107D9F722E0AEE6B1E001C01D927D
:10008000AC3EB207E1F70E94DD020C94D9060C9455
:1000900000001ABA87E886B980E487B908958770A6
:1000A000806487B986B1806486B9349BFECF86B1FF
:1000B000806186B924B185B190E0982F8827820F9E
:1000C000911D089511B880E280B9089594EA96BF11
:1000D00006B607FEFDCF91B1987F903171F483B9D8
:1000E00084E886BF06B607FEFDCF81B1887F8034E5
:1000F00031F0803231F482E0089580E0089581E0AB
:10010000089583E0089584E986BF06B604FCFDCF18
:100110000895CF93C82F84EA86BF06B607FEFDCFA9
:1001200081B1887F8830B9F7C3B984E886BF06B645
:1001300007FEFDCF81B1887F883119F00E948300CE
:10014000EACFCF91089583B984E886BF06B607FE4B
:10015000FDCF81B1887F883221F0803321F481E0A6
:10016000089580E0089582E0089584EC86BF06B685
:1001700007FEFDCF83B1089584E886BF06B607FE6B
:10018000FDCF83B108958AB188698AB980B5866840
:1001900080BD10BC83E389B908955D9BFECF8CB907
:1001A0000895CF93DF93EC0103C021960E94CD0008
:1001B00088818111FACFDF91CF9108952FE789EAE5
:1001C00093E0215080409040E1F700C0000080EDB6
:1001D0000E94890089E10E94A30087E00E94A30099
:1001E0000E94830080ED0E9489008BE60E94A3009C
:1001F00081E00E94A3000E94830080ED0E9489009C
:100200008AE10E94A30080E00E94A3000E94830074
:1002100080ED0E9489008BE10E94A30088E10E948A
:10022000A3000E94830080ED0E94890088E30E9461
:10023000A30081E00E94A3000E948300089580ED46
:100240000E9489008BE30E94A30081ED0E9466005A
:1002500008954F925F926F927F928F929F92AF928A
:10026000BF92CF92DF92EF92FF920F931F93CF93A3
:10027000DF93CDB7DEB76C970FB6F894DEBF0FBE35
:10028000CDBF20E030E040E858E360E070E0CB0113
:100290000E9431032B013C0120E030E040E858E3AC
:1002A00060E070E0CB010E9431036D8B7E8B8F8B01
:1002B000988F20E030E040E858E360E070E0CB0148
:1002C0000E943103698F7A8F8B8F9C8F0E941F0150
:1002D0000E94B5000E94B5000E94B5000E94B500C2
:1002E0000E94B5000E94B5000E94B5000E94B500B2
:1002F0000E94B5000E94B5000E94B5000E94BC009B
:100300000E94830080E00E944F008C0181E00E94E7
:100310004F007C0182E00E944F006C0183E00E944C
:100320004F005C0184E00E944F004C01043F81E0DB
:100330001807FCF484EFE81681E0F806D4F484EFA3
:10034000C81681E0D806ACF484EFA81681E0B806A0
:1003500084F484EF881681E098065CF48CE0E0E594
:10036000F1E0DE01119601900D928A95E1F781E0AE
:1003700096C0043F81E018070CF041C084EFE816F6
:1003800081E0F806E4F584EFC81681E0D806BCF5F4
:1003900084EFA81681E0B80694F584EF881681E012
:1003A00098066CF520E030E040E05FE3C301B20165
:1003B0000E94030388231CF52DEC3CEC4CE45FE326
:1003C0006D897E898F89988D0E9403038823BCF4F0
:1003D00020E030E040E05FE3698D7A8D8B8D9C8D6D
:1003E0000E94030388235CF48CE0E0E5F1E0DE0189
:1003F000119601900D928A95E1F781E050C0043F7B
:1004000011400CF042C084EFE81681E0F8060CF0D1
:100410003CC084EFC81681E0D806BCF584EFA8166E
:1004200081E0B80694F584EF881681E098066CF5B3
:1004300020E030E040E05FE3C301B2010E942C0302
:1004400018161CF52DEC3CEC4CE45FE36D897E89BD
:100450008F89988D0E942C031816BCF420E030E0A0
:1004600040E05FE3698D7A8D8B8D9C8D0E942C031B
:1004700018165CF48CE0E0E5F1E0DE0111960190E5
:100480000D928A95E1F781E00AC08BE0ECE5F1E09E
:10049000DE01119601900D928A95E1F782E0082F16
:1004A00010E01F928F9387E691E09F938F93CE0188
:1004B00001969F938F930E94EF030F900F900F90E0
:1004C0000F900F900F90C8016C960FB6F894DEBF96
:1004D0000FBECDBFDF91CF911F910F91FF90EF9095
:1004E000DF90CF90BF90AF909F908F907F906F9054
:1004F0005F904F9008950F931F93CF93DF938C01DC
:10050000EB018CE491E00E94D1008FE19EE4019721
:10051000F1F700C0000081E491E00E94D100AFE15A
:10052000BEE41197F1F700C0000088E391E00E945B
:10053000D1008FE19EE40197F1F700C00000C801EF
:100540000E94D1008DE00E94CD00AFE1BEE4119782
:10055000F1F700C00000CE010E94D1008CE20E94A1
:10056000CD008AE10E94CD00BFEF23ED30E3B15012
:1005700020403040E1F700C000008CE791E0E0E768
:10058000F1E0DF019C011D9221503040E1F7109213
:100590006F0110926E01DF91CF911F910F9108951D
:1005A000833619F0873629F0089588B38E7F88BB8B
:1005B000089588B3816088BB089580E895E20E9421
:1005C000C3000E9449000E9462000E94DE0087B3BF
:1005D000816087BB83E690E00E94D0020E942901DF
:1005E0000E94CD00B79BF3CF87E690E00E94D00237
:1005F00060E770E080E690E00E947B0283E690E096
:100600000E94D002E4CF0E94080308F481E008951C
:10061000990F0008550FAA0BE0E8FEEF1616170613
:10062000E807F907C0F012161306E407F50798F07B
:10063000621B730B840B950B39F40A2661F0232B94
:10064000242B252B21F408950A2609F4A140A69510
:100650008FEF811D811D08950E94080308F48FEF1C
:1006600008950E9444030C94B5030E94A70338F038
:100670000E94AE0320F0952311F00C949E030C947D
:10068000A40311240C94E9030E94C60370F3959F00
:10069000C1F3950F50E0551F629FF001729FBB2779
:1006A000F00DB11D639FAA27F00DB11DAA1F649F15
:1006B0006627B00DA11D661F829F2227B00DA11DC8
:1006C000621F739FB00DA11D621F839FA00D611D4E
:1006D000221F749F3327A00D611D231F849F600D6F
:1006E000211D822F762F6A2F11249F5750409AF098
:1006F000F1F088234AF0EE0FFF1FBB1F661F771F24
:10070000881F91505040A9F79E3F510580F00C94EE
:100710009E030C94E9035F3FE4F3983ED4F386957F
:1007200077956795B795F795E7959F5FC1F7FE2B8E
:10073000880F911D9695879597F9089597F99F676A
:1007400080E870E060E008959FEF80EC0895002459
:100750000A941616170618060906089500240A9426
:1007600012161306140605060895092E0394000CAC
:1007700011F4882352F0BB0F40F4BF2B11F460FF3B
:1007800004C06F5F7F4F8F4F9F4F089557FD905864
:10079000440F551F59F05F3F71F04795880F97FB45
:1007A000991F61F09F3F79F08795089512161306FF
:1007B0001406551FF2CF4695F1DF08C0161617062E
:1007C0001806991FF1CF8695710561050894089563
:1007D000E894BB2766277727CB0197F90895AEE009
:1007E000B0E0E5EFF3E00C94B0060D891E8986E0D9
:1007F0008C831A8309838FEF9FE79E838D83AE01DD
:10080000475E5F4F6F89788DCE0101960E9411047B
:10081000EF81F885E00FF11F10822E96E4E00C9432
:10082000CC06ABE0B0E0E7E1F4E00C94A2066C018A
:100830007B018A01FC0117821682838181FFCCC172
:10084000CE0101963C01F6019381F70193FD85915C
:1008500093FF81917F01882309F4BAC1853239F46D
:1008600093FD859193FF81917F01853229F4B60133
:1008700090E00E940806E7CF912C212C312CFFE15B
:10088000F315D8F08B3279F038F4803279F0833276
:10089000A1F4232D20611DC08D3261F0803369F4F5
:1008A000232D216016C0832D8260382EE32DE46055
:1008B0003E2E2AC0F32DF8601DC037FC2DC020ED60
:1008C000280F2A3040F08E32B9F436FC81C1232D36
:1008D0002064322E19C036FE06C08AE0989E200D94
:1008E0001124922E11C0EAE02E9E200D1124222EFA
:1008F000F32DF0623F2E08C08C3621F4832D8068E2
:10090000382E02C0883641F4F70193FD859193FF9C
:1009100081917F018111B3CF982F9F7D95549330A2
:1009200028F40C5F1F4F9FE399830DC0833631F08D
:10093000833771F0833509F059C021C0F8018081F7
:1009400089830E5F1F4F88248394912C530113C019
:100950002801F2E04F0E511CF801A080B18036FE54
:1009600003C0692D70E002C06FEF7FEFC5010E94E8
:10097000FD054C018201F32DFF773F2E16C02801A3
:1009800022E0420E511CF801A080B18036FE03C067
:10099000692D70E002C06FEF7FEFC5010E94F20584
:1009A0004C01F32DF0683F2E820133FC1BC0822DD9
:1009B00090E088169906B0F4B60180E290E00E94BB
:1009C00008062A94F4CFF50137FC859137FE819112
:1009D0005F01B60190E00E94080621102A9421E0F0
:1009E000821A91088114910471F7E8C0843611F0DD
:1009F000893641F5F80137FE07C060817181828137
:100A000093810C5F1F4F08C060817181072E000C1D
:100A1000880B990B0E5F1F4FF32DFF763F2E97FF2C
:100A200009C090958095709561957F4F8F4F9F4F2E
:100A3000F0683F2E2AE030E0A3010E944406882E91
:100A4000861845C0853731F4232D2F7EB22E2AE03B
:100A500030E025C0932D997FB92E8F36C1F018F460
:100A6000883579F0B5C0803719F0883721F0B0C0EB
:100A7000E92FE061BE2EB4FE0DC0FB2DF460BF2E49
:100A800009C034FE0AC0292F2660B22E06C028E015
:100A900030E005C020E130E002C020E132E0F801A2
:100AA000B7FE07C060817181828193810C5F1F4F07
:100AB00006C06081718180E090E00E5F1F4FA3014E
:100AC0000E944406882E8618FB2DFF773F2E36FEA7
:100AD0000DC0232D2E7FA22E891458F434FE0BC096
:100AE00032FC09C0832D8E7EA82E05C0B82CA32C05
:100AF00003C0B82C01C0B92CA4FE0FC0FE01E80D44
:100B0000F11D8081803321F49A2D997EA92E09C090
:100B1000A2FE06C0B394B39404C08A2D867809F06F
:100B2000B394A3FC11C0A0FE06C0B21488F4280C34
:100B3000922C9B180EC0B21460F4B60180E290E0D3
:100B40000E940806B394F7CFB21418F42B1802C011
:100B5000982C212CA4FE10C0B60180E390E00E94E6
:100B60000806A2FE17C0A1FC03C088E790E002C0FF
:100B700088E590E0B6010CC08A2D867859F0A1FE78
:100B800002C08BE201C080E2A7FC8DE2B60190E0DA
:100B90000E940806891438F4B60180E390E00E94B0
:100BA00008069A94F7CF8A94F301E80DF11D80812D
:100BB000B60190E00E9408068110F5CF222009F4CA
:100BC00042CEB60180E290E00E9408062A94F6CF59
:100BD000F6018681978102C08FEF9FEF2B96E2E1AD
:100BE0000C94BE06FC010590615070400110D8F7CE
:100BF000809590958E0F9F1F0895FC016150704065
:100C000001900110D8F7809590958E0F9F1F089541
:100C10000F931F93CF93DF93FB01238121FD03C02B
:100C20008FEF9FEF2CC022FF16C046815781248191
:100C300035814217530744F4A081B1819D012F5F94
:100C40003F4F318320838C93268137812F5F3F4F25
:100C50003783268314C08B01EC01FB010084F185EE
:100C6000E02D0995892BE1F6D80116968D919C917E
:100C70001797019617969C938E931697CE01DF9146
:100C8000CF911F910F910895FA01AA27283051F1B1
:100C9000203181F1E8946F936E7F6E5F7F4F8F4FAD
:100CA0009F4FAF4FB1E03ED0B4E03CD0670F781F0C
:100CB000891F9A1FA11D680F791F8A1F911DA11DF1
:100CC0006A0F711D811D911DA11D20D009F468942A
:100CD0003F912AE0269F11243019305D3193DEF6D2
:100CE000CF010895462F4770405D4193B3E00FD088
:100CF000C9F7F6CF462F4F70405D4A3318F0495D73
:100D000031FD4052419302D0A9F7EACFB4E0A69555
:100D10009795879577956795BA95C9F70097610577
:100D2000710508959B01AC010A2E069457954795CD
:100D300037952795BA95C9F7620F731F841F951FC2
:100D4000A01D08952F923F924F925F926F927F92D3
:100D50008F929F92AF92BF92CF92DF92EF92FF92CB
:100D60000F931F93CF93DF93CDB7DEB7CA1BDB0B77
:100D70000FB6F894DEBF0FBECDBF09942A8839881C
:100D800048885F846E847D848C849B84AA84B98423
:100D9000C884DF80EE80FD800C811B81AA81B9812F
:100DA000CE0FD11D0FB6F894DEBF0FBECDBFED0143
:060DB0000895F894FFCF46
:100DB600222B39343736323335363032372200007B
:100DC6004920616D20696E20616E20656D657267D0
:100DD600656E63792E706C656173652068656C70ED
:100DE6002E2E2E0000000000000000000000000073
:100DF60000000000000000000000000000000000ED
:100E060000000000000000000000000000000000DC
:100E160000000000000000000000000000000000CC
:100E260000000000000000000000000000000000BC
:100E360000000000000000000000000000000000AC
:100E4600000000000000000000000000000000009C
:100E5600000000000000000000000000000000008C
:100E6600000000000000000000000000000000007C
:100E7600000000000000000000000000000000006C
:100E8600000000000000000041542B434D47533D35
:100E96000041542B434D47463D310A0041540A0058
:100EA600436F6D6520686572652020005369742064
:0E0EB600646F776E202000202320256420002A
:00000001FF
