S0150000557361727420726563656976652E73726563FD
S11300000C942A000C9447000C9447000C9447006D
S11300100C9447000C9447000C9447000C94470040
S11300200C9447000C9447000C9447000C94470030
S11300300C9447000C9447000C9447000C94470020
S11300400C9447000C9447000C9447000C94470010
S11300500C94470011241FBECFE5D8E0DEBFCDBF0E
S113006010E0A0E6B0E0ECEFF9E002C005900D92DC
S1130070A23AB107D9F720E0A2EAB0E001C01D928C
S1130080A23AB207E1F70E94F3010C94FC040C9429
S113009000001ABA87E886B980E487B908958770A2
S11300A0806487B986B1806486B9349BFECF86B1FB
S11300B0806186B924B185B190E0982F8827820F9A
S11300C0911D089598B39F70282F207F922B98BB81
S11300D098B39E7F98BB98B3926098BB35E03A95ED
S11300E0F1F7000098B39D7F98BBEFE8F1E03197FA
S11300F0F1F700C0000028B3F0E18F9FC001112484
S1130100922F9F70892B88BB88B3826088BB35E0AF
S11301103A95F1F7000088B38D7F88BB8FE39FE1A8
S11301200197F1F700C0000008958FEF87BB2FEF10
S113013089EF90E0215080409040E1F700C000003A
S113014082E00E94620088E20E9462008CE00E94C9
S1130150620081E00E94620082E80E9462000895C9
S113016098B39F70282F207F922B98BB98B39160EF
S113017098BB98B3926098BB35E03A95F1F70000CC
S113018098B39D7F98BBEFE8F1E03197F1F700C099
S1130190000028B3F0E18F9FC0011124922F9F70BB
S11301A0892B88BB88B3826088BB35E03A95F1F728
S11301B0000088B38D7F88BB8FE39FE10197F1F73F
S11301C000C0000008950F931F93CF93DF938A011B
S11301D0813031F4862F8F7080680E94620007C0DE
S11301E0823029F4862F8F70806C0E946200C0E0F8
S11301F0D0E003C00E94B0002196F801EC0FFD1F6F
S113020080818111F7CFDF91CF911F910F910895D4
S113021090BD89B988E18AB98EE880BD08955F9B55
S1130220FECF8CB108956F927F928F929F92AF927E
S1130230BF92CF92DF92EF92FF920F931F93CF93CF
S1130240DF93CDB7DEB764970FB6F894DEBF0FBE69
S1130250CDBF80E00E944F007C01FF928F9380E627
S113026090E09F938F938E010F5F1F4F1F930F9307
S11302700E941202A80162E081E00E94E30081E092
S11302800E944F006C01DF928F9387E690E09F936A
S11302908F931F930F930E941202A8016AE081E0DA
S11302A00E94E30082E00E944F005C01BF928F93A2
S11302B08EE690E09F938F931F930F930E941202F8
S11302C0A80161E181E00E94E30083E00E944F0005
S11302D03C017F928F9385E790E09F938F931F93C8
S11302E00F930E941202A80168E181E00E94E300DA
S11302F084E00E944F004C019F928F938CE790E022
S11303009F938F931F930F930E941202A80160E2A0
S113031081E00E94E3000FB6F894DEBF0FBECDBFAC
S113032094EFE91691E0F906ECF484EFC81681E045
S1130330D806C4F494EFA91691E0B9069CF484EFAE
S1130340681681E0780674F494EF891691E09906B2
S11303504CF48BE0E3E8F0E0D80101900D928A952B
S1130360E1F72CC083ECE81682E0F806F1F493EC94
S1130370C91692E0D906C9F48CEBA81682E0B80637
S1130380A4F49CEB691692E079067CF48CEB881655
S113039082E0980654F48AE0EEE8F0E0DE0111967B
S11303A001900D928A95E1F709C08AE0E8E9F0E04E
S11303B0DE01119601900D928A95E1F764960FB6CD
S11303C0F894DEBF0FBECDBFDF91CF911F910F9187
S11303D0FF90EF90DF90CF90BF90AF909F908F9061
S11303E07F906F900895CF93DF93CDB7DEB72C97AE
S11303F00FB6F894DEBF0FBECDBF80E895E20E9431
S113040008010E9449000E94950078940E940F01FF
S11304100E941301AE014F5F5F4F6AE082E00E94C9
S1130420E300F4CFAEE0B0E0E8E1F2E00C94D304F2
S11304300D891E8986E08C831A8309838FEF9FE7D9
S11304409E838D83AE01475E5F4F6F89788DCE01A9
S113045001960E943402EF81F885E00FF11F1082AB
S11304602E96E4E00C94EF04ABE0B0E0EAE3F2E0B3
S11304700C94C5046C017B018A01FC01178216826D
S1130480838181FFCCC1CE0101963C01F6019381A9
S1130490F70193FD859193FF81917F01882309F4EE
S11304A0BAC1853239F493FD859193FF81917F011F
S11304B0853229F4B60190E00E942B04E7CF912CF9
S11304C0212C312CFFE1F315D8F08B3279F038F47C
S11304D0803279F08332A1F4232D20611DC08D3246
S11304E061F0803369F4232D216016C0832D82606E
S11304F0382EE32DE4603E2E2AC0F32DF8601DC093
S113050037FC2DC020ED280F2A3040F08E32B9F48C
S113051036FC81C1232D2064322E19C036FE06C05C
S11305208AE0989E200D1124922E11C0EAE02E9E9E
S1130530200D1124222EF32DF0623F2E08C08C369C
S113054021F4832D8068382E02C0883641F4F701E7
S113055093FD859193FF81917F018111B3CF982FF2
S11305609F7D9554933028F40C5F1F4F9FE399832C
S11305700DC0833631F0833771F0833509F059C0EB
S113058021C0F801808189830E5F1F4F88248394E2
S1130590912C530113C02801F2E04F0E511CF801B5
S11305A0A080B18036FE03C0692D70E002C06FEFF9
S11305B07FEFC5010E9420044C018201F32DFF77D7
S11305C03F2E16C0280122E0420E511CF801A080E3
S11305D0B18036FE03C0692D70E002C06FEF7FEF7B
S11305E0C5010E9415044C01F32DF0683F2E8201D1
S11305F033FC1BC0822D90E088169906B0F4B60136
S113060080E290E00E942B042A94F4CFF50137FC99
S1130610859137FE81915F01B60190E00E942B0421
S113062021102A9421E0821A91088114910471F70F
S1130630E8C0843611F0893641F5F80137FE07C069
S113064060817181828193810C5F1F4F08C060813A
S11306507181072E000C880B990B0E5F1F4FF32D31
S1130660FF763F2E97FF09C0909580957095619510
S11306707F4F8F4F9F4FF0683F2E2AE030E0A30159
S11306800E946704882E861845C0853731F4232DCF
S11306902F7EB22E2AE030E025C0932D997FB92E0B
S11306A08F36C1F018F4883579F0B5C0803719F069
S11306B0883721F0B0C0E92FE061BE2EB4FE0DC032
S11306C0FB2DF460BF2E09C034FE0AC0292F26601A
S11306D0B22E06C028E030E005C020E130E002C0C0
S11306E020E132E0F801B7FE07C0608171818281A8
S11306F093810C5F1F4F06C06081718180E090E0A0
S11307000E5F1F4FA3010E946704882E8618FB2DDD
S1130710FF773F2E36FE0DC0232D2E7FA22E891487
S113072058F434FE0BC032FC09C0832D8E7EA82EF3
S113073005C0B82CA32C03C0B82C01C0B92CA4FE4E
S11307400FC0FE01E80DF11D8081803321F49A2D44
S1130750997EA92E09C0A2FE06C0B394B39404C026
S11307608A2D867809F0B394A3FC11C0A0FE06C0BC
S1130770B21488F4280C922C9B180EC0B21460F4A6
S1130780B60180E290E00E942B04B394F7CFB21438
S113079018F42B1802C0982C212CA4FE10C0B6010A
S11307A080E390E00E942B04A2FE17C0A1FC03C0CA
S11307B088E790E002C088E590E0B6010CC08A2D7D
S11307C0867859F0A1FE02C08BE201C080E2A7FC4A
S11307D08DE2B60190E00E942B04891438F4B6012E
S11307E080E390E00E942B049A94F7CF8A94F3015B
S11307F0E80DF11D8081B60190E00E942B04811068
S1130800F5CF222009F442CEB60180E290E00E94A6
S11308102B042A94F6CFF6018681978102C08FEFCC
S11308209FEF2B96E2E10C94E104FC0105906150EA
S113083070400110D8F7809590958E0F9F1F0895F2
S1130840FC016150704001900110D8F7809590959B
S11308508E0F9F1F08950F931F93CF93DF93FB0178
S1130860238121FD03C08FEF9FEF2CC022FF16C010
S113087046815781248135814217530744F4A0816E
S1130880B1819D012F5F3F4F318320838C9326815B
S113089037812F5F3F4F3783268314C08B01EC01D0
S11308A0FB010084F185E02D0995892BE1F6D8013F
S11308B016968D919C911797019617969C938E93FB
S11308C01697CE01DF91CF911F910F910895FA01F0
S11308D0AA27283051F1203181F1E8946F936E7F7B
S11308E06E5F7F4F8F4F9F4FAF4FB1E03ED0B4E06C
S11308F03CD0670F781F891F9A1FA11D680F791FAD
S11309008A1F911DA11D6A0F711D811D911DA11DBD
S113091020D009F468943F912AE0269F11243019CD
S1130920305D3193DEF6CF010895462F4770405D68
S11309304193B3E00FD0C9F7F6CF462F4F70405D17
S11309404A3318F0495D31FD4052419302D0A9F772
S1130950EACFB4E0A6959795879577956795BA956C
S1130960C9F700976105710508959B01AC010A2E32
S113097006945795479537952795BA95C9F7620F09
S1130980731F841F951FA01D08952F923F924F92AD
S11309905F926F927F928F929F92AF92BF92CF920B
S11309A0DF92EF92FF920F931F93CF93DF93CDB714
S11309B0DEB7CA1BDB0B0FB6F894DEBF0FBECDBF8C
S11309C009942A88398848885F846E847D848C845D
S11309D09B84AA84B984C884DF80EE80FD800C8166
S11309E01B81AA81B981CE0FD11D0FB6F894DEBF49
S10F09F00FBECDBFED010895F894FFCFB9
S11309FC412564202020004225642020200043252A
S1130A0C64202020004425642020200045256420F7
S1130A1C202000436F6D6568657265202000686155
S1130A2C20686161612020006861206572747774AC
S1050A3C200094
S9030000FC
